{
  "_format": "hh-sol-artifact-1",
  "contractName": "EventTicketNFT",
  "sourceName": "contracts/nft-contract.sol",
  "abi": [
    {
      "inputs": [
        {
          "internalType": "string",
          "name": "name",
          "type": "string"
        },
        {
          "internalType": "string",
          "name": "symbol",
          "type": "string"
        },
        {
          "internalType": "uint256",
          "name": "_maxSupply",
          "type": "uint256"
        },
        {
          "internalType": "string",
          "name": "initialBaseURI",
          "type": "string"
        }
      ],
      "stateMutability": "nonpayable",
      "type": "constructor"
    },
    {
      "inputs": [
        {
          "internalType": "address",
          "name": "sender",
          "type": "address"
        },
        {
          "internalType": "uint256",
          "name": "tokenId",
          "type": "uint256"
        },
        {
          "internalType": "address",
          "name": "owner",
          "type": "address"
        }
      ],
      "name": "ERC721IncorrectOwner",
      "type": "error"
    },
    {
      "inputs": [
        {
          "internalType": "address",
          "name": "operator",
          "type": "address"
        },
        {
          "internalType": "uint256",
          "name": "tokenId",
          "type": "uint256"
        }
      ],
      "name": "ERC721InsufficientApproval",
      "type": "error"
    },
    {
      "inputs": [
        {
          "internalType": "address",
          "name": "approver",
          "type": "address"
        }
      ],
      "name": "ERC721InvalidApprover",
      "type": "error"
    },
    {
      "inputs": [
        {
          "internalType": "address",
          "name": "operator",
          "type": "address"
        }
      ],
      "name": "ERC721InvalidOperator",
      "type": "error"
    },
    {
      "inputs": [
        {
          "internalType": "address",
          "name": "owner",
          "type": "address"
        }
      ],
      "name": "ERC721InvalidOwner",
      "type": "error"
    },
    {
      "inputs": [
        {
          "internalType": "address",
          "name": "receiver",
          "type": "address"
        }
      ],
      "name": "ERC721InvalidReceiver",
      "type": "error"
    },
    {
      "inputs": [
        {
          "internalType": "address",
          "name": "sender",
          "type": "address"
        }
      ],
      "name": "ERC721InvalidSender",
      "type": "error"
    },
    {
      "inputs": [
        {
          "internalType": "uint256",
          "name": "tokenId",
          "type": "uint256"
        }
      ],
      "name": "ERC721NonexistentToken",
      "type": "error"
    },
    {
      "inputs": [
        {
          "internalType": "address",
          "name": "owner",
          "type": "address"
        }
      ],
      "name": "OwnableInvalidOwner",
      "type": "error"
    },
    {
      "inputs": [
        {
          "internalType": "address",
          "name": "account",
          "type": "address"
        }
      ],
      "name": "OwnableUnauthorizedAccount",
      "type": "error"
    },
    {
      "anonymous": false,
      "inputs": [
        {
          "indexed": true,
          "internalType": "address",
          "name": "owner",
          "type": "address"
        },
        {
          "indexed": true,
          "internalType": "address",
          "name": "approved",
          "type": "address"
        },
        {
          "indexed": true,
          "internalType": "uint256",
          "name": "tokenId",
          "type": "uint256"
        }
      ],
      "name": "Approval",
      "type": "event"
    },
    {
      "anonymous": false,
      "inputs": [
        {
          "indexed": true,
          "internalType": "address",
          "name": "owner",
          "type": "address"
        },
        {
          "indexed": true,
          "internalType": "address",
          "name": "operator",
          "type": "address"
        },
        {
          "indexed": false,
          "internalType": "bool",
          "name": "approved",
          "type": "bool"
        }
      ],
      "name": "ApprovalForAll",
      "type": "event"
    },
    {
      "anonymous": false,
      "inputs": [
        {
          "indexed": false,
          "internalType": "uint256",
          "name": "_fromTokenId",
          "type": "uint256"
        },
        {
          "indexed": false,
          "internalType": "uint256",
          "name": "_toTokenId",
          "type": "uint256"
        }
      ],
      "name": "BatchMetadataUpdate",
      "type": "event"
    },
    {
      "anonymous": false,
      "inputs": [
        {
          "indexed": false,
          "internalType": "uint256",
          "name": "_tokenId",
          "type": "uint256"
        }
      ],
      "name": "MetadataUpdate",
      "type": "event"
    },
    {
      "anonymous": false,
      "inputs": [
        {
          "indexed": true,
          "internalType": "address",
          "name": "previousOwner",
          "type": "address"
        },
        {
          "indexed": true,
          "internalType": "address",
          "name": "newOwner",
          "type": "address"
        }
      ],
      "name": "OwnershipTransferred",
      "type": "event"
    },
    {
      "anonymous": false,
      "inputs": [
        {
          "indexed": true,
          "internalType": "address",
          "name": "recipient",
          "type": "address"
        },
        {
          "indexed": false,
          "internalType": "uint256",
          "name": "tokenId",
          "type": "uint256"
        }
      ],
      "name": "TicketMinted",
      "type": "event"
    },
    {
      "anonymous": false,
      "inputs": [
        {
          "indexed": true,
          "internalType": "address",
          "name": "from",
          "type": "address"
        },
        {
          "indexed": true,
          "internalType": "address",
          "name": "to",
          "type": "address"
        },
        {
          "indexed": true,
          "internalType": "uint256",
          "name": "tokenId",
          "type": "uint256"
        }
      ],
      "name": "Transfer",
      "type": "event"
    },
    {
      "inputs": [
        {
          "internalType": "address",
          "name": "to",
          "type": "address"
        },
        {
          "internalType": "uint256",
          "name": "tokenId",
          "type": "uint256"
        }
      ],
      "name": "approve",
      "outputs": [],
      "stateMutability": "nonpayable",
      "type": "function"
    },
    {
      "inputs": [
        {
          "internalType": "address",
          "name": "owner",
          "type": "address"
        }
      ],
      "name": "balanceOf",
      "outputs": [
        {
          "internalType": "uint256",
          "name": "",
          "type": "uint256"
        }
      ],
      "stateMutability": "view",
      "type": "function"
    },
    {
      "inputs": [],
      "name": "baseURI",
      "outputs": [
        {
          "internalType": "string",
          "name": "",
          "type": "string"
        }
      ],
      "stateMutability": "view",
      "type": "function"
    },
    {
      "inputs": [
        {
          "internalType": "uint256",
          "name": "tokenId",
          "type": "uint256"
        }
      ],
      "name": "getApproved",
      "outputs": [
        {
          "internalType": "address",
          "name": "",
          "type": "address"
        }
      ],
      "stateMutability": "view",
      "type": "function"
    },
    {
      "inputs": [
        {
          "internalType": "address",
          "name": "owner",
          "type": "address"
        },
        {
          "internalType": "address",
          "name": "operator",
          "type": "address"
        }
      ],
      "name": "isApprovedForAll",
      "outputs": [
        {
          "internalType": "bool",
          "name": "",
          "type": "bool"
        }
      ],
      "stateMutability": "view",
      "type": "function"
    },
    {
      "inputs": [],
      "name": "maxSupply",
      "outputs": [
        {
          "internalType": "uint256",
          "name": "",
          "type": "uint256"
        }
      ],
      "stateMutability": "view",
      "type": "function"
    },
    {
      "inputs": [
        {
          "internalType": "address",
          "name": "recipient",
          "type": "address"
        },
        {
          "internalType": "string",
          "name": "tokenURI",
          "type": "string"
        }
      ],
      "name": "mintTicket",
      "outputs": [],
      "stateMutability": "nonpayable",
      "type": "function"
    },
    {
      "inputs": [],
      "name": "name",
      "outputs": [
        {
          "internalType": "string",
          "name": "",
          "type": "string"
        }
      ],
      "stateMutability": "view",
      "type": "function"
    },
    {
      "inputs": [],
      "name": "nextTokenId",
      "outputs": [
        {
          "internalType": "uint256",
          "name": "",
          "type": "uint256"
        }
      ],
      "stateMutability": "view",
      "type": "function"
    },
    {
      "inputs": [],
      "name": "owner",
      "outputs": [
        {
          "internalType": "address",
          "name": "",
          "type": "address"
        }
      ],
      "stateMutability": "view",
      "type": "function"
    },
    {
      "inputs": [
        {
          "internalType": "uint256",
          "name": "tokenId",
          "type": "uint256"
        }
      ],
      "name": "ownerOf",
      "outputs": [
        {
          "internalType": "address",
          "name": "",
          "type": "address"
        }
      ],
      "stateMutability": "view",
      "type": "function"
    },
    {
      "inputs": [],
      "name": "renounceOwnership",
      "outputs": [],
      "stateMutability": "nonpayable",
      "type": "function"
    },
    {
      "inputs": [
        {
          "internalType": "address",
          "name": "from",
          "type": "address"
        },
        {
          "internalType": "address",
          "name": "to",
          "type": "address"
        },
        {
          "internalType": "uint256",
          "name": "tokenId",
          "type": "uint256"
        }
      ],
      "name": "safeTransferFrom",
      "outputs": [],
      "stateMutability": "nonpayable",
      "type": "function"
    },
    {
      "inputs": [
        {
          "internalType": "address",
          "name": "from",
          "type": "address"
        },
        {
          "internalType": "address",
          "name": "to",
          "type": "address"
        },
        {
          "internalType": "uint256",
          "name": "tokenId",
          "type": "uint256"
        },
        {
          "internalType": "bytes",
          "name": "data",
          "type": "bytes"
        }
      ],
      "name": "safeTransferFrom",
      "outputs": [],
      "stateMutability": "nonpayable",
      "type": "function"
    },
    {
      "inputs": [
        {
          "internalType": "address",
          "name": "operator",
          "type": "address"
        },
        {
          "internalType": "bool",
          "name": "approved",
          "type": "bool"
        }
      ],
      "name": "setApprovalForAll",
      "outputs": [],
      "stateMutability": "nonpayable",
      "type": "function"
    },
    {
      "inputs": [
        {
          "internalType": "string",
          "name": "_newBaseURI",
          "type": "string"
        }
      ],
      "name": "setBaseURI",
      "outputs": [],
      "stateMutability": "nonpayable",
      "type": "function"
    },
    {
      "inputs": [
        {
          "internalType": "bytes4",
          "name": "interfaceId",
          "type": "bytes4"
        }
      ],
      "name": "supportsInterface",
      "outputs": [
        {
          "internalType": "bool",
          "name": "",
          "type": "bool"
        }
      ],
      "stateMutability": "view",
      "type": "function"
    },
    {
      "inputs": [],
      "name": "symbol",
      "outputs": [
        {
          "internalType": "string",
          "name": "",
          "type": "string"
        }
      ],
      "stateMutability": "view",
      "type": "function"
    },
    {
      "inputs": [
        {
          "internalType": "uint256",
          "name": "tokenId",
          "type": "uint256"
        }
      ],
      "name": "tokenURI",
      "outputs": [
        {
          "internalType": "string",
          "name": "",
          "type": "string"
        }
      ],
      "stateMutability": "view",
      "type": "function"
    },
    {
      "inputs": [
        {
          "internalType": "address",
          "name": "from",
          "type": "address"
        },
        {
          "internalType": "address",
          "name": "to",
          "type": "address"
        },
        {
          "internalType": "uint256",
          "name": "tokenId",
          "type": "uint256"
        }
      ],
      "name": "transferFrom",
      "outputs": [],
      "stateMutability": "nonpayable",
      "type": "function"
    },
    {
      "inputs": [
        {
          "internalType": "address",
          "name": "newOwner",
          "type": "address"
        }
      ],
      "name": "transferOwnership",
      "outputs": [],
      "stateMutability": "nonpayable",
      "type": "function"
    }
  ],
  "bytecode": "0x60806040523480156200001157600080fd5b5060405162003189380380620031898339818101604052810190620000379190620003a6565b33848481600090816200004b9190620006b6565b5080600190816200005d9190620006b6565b505050600073ffffffffffffffffffffffffffffffffffffffff168173ffffffffffffffffffffffffffffffffffffffff1603620000d55760006040517f1e4fbdf7000000000000000000000000000000000000000000000000000000008152600401620000cc9190620007e2565b60405180910390fd5b620000e6816200011260201b60201c565b508160098190555080600a9081620000ff9190620006b6565b50600160088190555050505050620007ff565b6000600760009054906101000a900473ffffffffffffffffffffffffffffffffffffffff16905081600760006101000a81548173ffffffffffffffffffffffffffffffffffffffff021916908373ffffffffffffffffffffffffffffffffffffffff1602179055508173ffffffffffffffffffffffffffffffffffffffff168173ffffffffffffffffffffffffffffffffffffffff167f8be0079c531659141344cd1fd0a4f28419497f9722a3daafe3b4186f6b6457e060405160405180910390a35050565b6000604051905090565b600080fd5b600080fd5b600080fd5b600080fd5b6000601f19601f8301169050919050565b7f4e487b7100000000000000000000000000000000000000000000000000000000600052604160045260246000fd5b6200024182620001f6565b810181811067ffffffffffffffff8211171562000263576200026262000207565b5b80604052505050565b600062000278620001d8565b905062000286828262000236565b919050565b600067ffffffffffffffff821115620002a957620002a862000207565b5b620002b482620001f6565b9050602081019050919050565b60005b83811015620002e1578082015181840152602081019050620002c4565b60008484015250505050565b600062000304620002fe846200028b565b6200026c565b905082815260208101848484011115620003235762000322620001f1565b5b62000330848285620002c1565b509392505050565b600082601f83011262000350576200034f620001ec565b5b815162000362848260208601620002ed565b91505092915050565b6000819050919050565b62000380816200036b565b81146200038c57600080fd5b50565b600081519050620003a08162000375565b92915050565b60008060008060808587031215620003c357620003c2620001e2565b5b600085015167ffffffffffffffff811115620003e457620003e3620001e7565b5b620003f28782880162000338565b945050602085015167ffffffffffffffff811115620004165762000415620001e7565b5b620004248782880162000338565b935050604062000437878288016200038f565b925050606085015167ffffffffffffffff8111156200045b576200045a620001e7565b5b620004698782880162000338565b91505092959194509250565b600081519050919050565b7f4e487b7100000000000000000000000000000000000000000000000000000000600052602260045260246000fd5b60006002820490506001821680620004c857607f821691505b602082108103620004de57620004dd62000480565b5b50919050565b60008190508160005260206000209050919050565b60006020601f8301049050919050565b600082821b905092915050565b600060088302620005487fffffffffffffffffffffffffffffffffffffffffffffffffffffffffffffffff8262000509565b62000554868362000509565b95508019841693508086168417925050509392505050565b6000819050919050565b600062000597620005916200058b846200036b565b6200056c565b6200036b565b9050919050565b6000819050919050565b620005b38362000576565b620005cb620005c2826200059e565b84845462000516565b825550505050565b600090565b620005e2620005d3565b620005ef818484620005a8565b505050565b5b8181101562000617576200060b600082620005d8565b600181019050620005f5565b5050565b601f82111562000666576200063081620004e4565b6200063b84620004f9565b810160208510156200064b578190505b620006636200065a85620004f9565b830182620005f4565b50505b505050565b600082821c905092915050565b60006200068b600019846008026200066b565b1980831691505092915050565b6000620006a6838362000678565b9150826002028217905092915050565b620006c18262000475565b67ffffffffffffffff811115620006dd57620006dc62000207565b5b620006e98254620004af565b620006f68282856200061b565b600060209050601f8311600181146200072e576000841562000719578287015190505b62000725858262000698565b86555062000795565b601f1984166200073e86620004e4565b60005b82811015620007685784890151825560018201915060208501945060208101905062000741565b8683101562000788578489015162000784601f89168262000678565b8355505b6001600288020188555050505b505050505050565b600073ffffffffffffffffffffffffffffffffffffffff82169050919050565b6000620007ca826200079d565b9050919050565b620007dc81620007bd565b82525050565b6000602082019050620007f96000830184620007d1565b92915050565b61297a806200080f6000396000f3fe608060405234801561001057600080fd5b50600436106101375760003560e01c806370a08231116100b8578063a22cb4651161007c578063a22cb46514610328578063b88d4fde14610344578063c87b56dd14610360578063d5abeb0114610390578063e985e9c5146103ae578063f2fde38b146103de57610137565b806370a0823114610294578063715018a6146102c457806375794a3c146102ce5780638da5cb5b146102ec57806395d89b411461030a57610137565b806342842e0e116100ff57806342842e0e146101f25780635388842c1461020e57806355f804b31461022a5780636352211e146102465780636c0360eb1461027657610137565b806301ffc9a71461013c57806306fdde031461016c578063081812fc1461018a578063095ea7b3146101ba57806323b872dd146101d6575b600080fd5b61015660048036038101906101519190611d1d565b6103fa565b6040516101639190611d65565b60405180910390f35b61017461045b565b6040516101819190611e10565b60405180910390f35b6101a4600480360381019061019f9190611e68565b6104ed565b6040516101b19190611ed6565b60405180910390f35b6101d460048036038101906101cf9190611f1d565b610509565b005b6101f060048036038101906101eb9190611f5d565b61051f565b005b61020c60048036038101906102079190611f5d565b610621565b005b610228600480360381019061022391906120e5565b610641565b005b610244600480360381019061023f9190612141565b610716565b005b610260600480360381019061025b9190611e68565b610731565b60405161026d9190611ed6565b60405180910390f35b61027e610743565b60405161028b9190611e10565b60405180910390f35b6102ae60048036038101906102a9919061218a565b6107d1565b6040516102bb91906121c6565b60405180910390f35b6102cc61088b565b005b6102d661089f565b6040516102e391906121c6565b60405180910390f35b6102f46108a5565b6040516103019190611ed6565b60405180910390f35b6103126108cf565b60405161031f9190611e10565b60405180910390f35b610342600480360381019061033d919061220d565b610961565b005b61035e600480360381019061035991906122ee565b610977565b005b61037a60048036038101906103759190611e68565b610994565b6040516103879190611e10565b60405180910390f35b610398610aa7565b6040516103a591906121c6565b60405180910390f35b6103c860048036038101906103c39190612371565b610aad565b6040516103d59190611d65565b60405180910390f35b6103f860048036038101906103f3919061218a565b610b41565b005b6000634906490660e01b7bffffffffffffffffffffffffffffffffffffffffffffffffffffffff1916827bffffffffffffffffffffffffffffffffffffffffffffffffffffffff19161480610454575061045382610bc7565b5b9050919050565b60606000805461046a906123e0565b80601f0160208091040260200160405190810160405280929190818152602001828054610496906123e0565b80156104e35780601f106104b8576101008083540402835291602001916104e3565b820191906000526020600020905b8154815290600101906020018083116104c657829003601f168201915b5050505050905090565b60006104f882610ca9565b5061050282610d31565b9050919050565b61051b8282610516610d6e565b610d76565b5050565b600073ffffffffffffffffffffffffffffffffffffffff168273ffffffffffffffffffffffffffffffffffffffff16036105915760006040517f64a0ae920000000000000000000000000000000000000000000000000000000081526004016105889190611ed6565b60405180910390fd5b60006105a583836105a0610d6e565b610d88565b90508373ffffffffffffffffffffffffffffffffffffffff168173ffffffffffffffffffffffffffffffffffffffff161461061b578382826040517f64283d7b00000000000000000000000000000000000000000000000000000000815260040161061293929190612411565b60405180910390fd5b50505050565b61063c83838360405180602001604052806000815250610977565b505050565b610649610fa2565b6009546008541115610690576040517f08c379a000000000000000000000000000000000000000000000000000000000815260040161068790612494565b60405180910390fd5b600060085490506106a18382611029565b6106ab8183611047565b8273ffffffffffffffffffffffffffffffffffffffff167fe3bc6f5972e89b7adec47f0277204f27cd981570e200dd4d408093535c9e8e69826040516106f191906121c6565b60405180910390a26008600081548092919061070c906124e3565b9190505550505050565b61071e610fa2565b80600a908161072d91906126d7565b5050565b600061073c82610ca9565b9050919050565b600a8054610750906123e0565b80601f016020809104026020016040519081016040528092919081815260200182805461077c906123e0565b80156107c95780601f1061079e576101008083540402835291602001916107c9565b820191906000526020600020905b8154815290600101906020018083116107ac57829003601f168201915b505050505081565b60008073ffffffffffffffffffffffffffffffffffffffff168273ffffffffffffffffffffffffffffffffffffffff16036108445760006040517f89c62b6400000000000000000000000000000000000000000000000000000000815260040161083b9190611ed6565b60405180910390fd5b600360008373ffffffffffffffffffffffffffffffffffffffff1673ffffffffffffffffffffffffffffffffffffffff168152602001908152602001600020549050919050565b610893610fa2565b61089d60006110a3565b565b60085481565b6000600760009054906101000a900473ffffffffffffffffffffffffffffffffffffffff16905090565b6060600180546108de906123e0565b80601f016020809104026020016040519081016040528092919081815260200182805461090a906123e0565b80156109575780601f1061092c57610100808354040283529160200191610957565b820191906000526020600020905b81548152906001019060200180831161093a57829003601f168201915b5050505050905090565b61097361096c610d6e565b8383611169565b5050565b61098284848461051f565b61098e848484846112d8565b50505050565b606061099f82610ca9565b5060006006600084815260200190815260200160002080546109c0906123e0565b80601f01602080910402602001604051908101604052809291908181526020018280546109ec906123e0565b8015610a395780601f10610a0e57610100808354040283529160200191610a39565b820191906000526020600020905b815481529060010190602001808311610a1c57829003601f168201915b505050505090506000610a4a61148f565b90506000815103610a5f578192505050610aa2565b600082511115610a94578082604051602001610a7c9291906127e5565b60405160208183030381529060405292505050610aa2565b610a9d84611521565b925050505b919050565b60095481565b6000600560008473ffffffffffffffffffffffffffffffffffffffff1673ffffffffffffffffffffffffffffffffffffffff16815260200190815260200160002060008373ffffffffffffffffffffffffffffffffffffffff1673ffffffffffffffffffffffffffffffffffffffff16815260200190815260200160002060009054906101000a900460ff16905092915050565b610b49610fa2565b600073ffffffffffffffffffffffffffffffffffffffff168173ffffffffffffffffffffffffffffffffffffffff1603610bbb5760006040517f1e4fbdf7000000000000000000000000000000000000000000000000000000008152600401610bb29190611ed6565b60405180910390fd5b610bc4816110a3565b50565b60007f80ac58cd000000000000000000000000000000000000000000000000000000007bffffffffffffffffffffffffffffffffffffffffffffffffffffffff1916827bffffffffffffffffffffffffffffffffffffffffffffffffffffffff19161480610c9257507f5b5e139f000000000000000000000000000000000000000000000000000000007bffffffffffffffffffffffffffffffffffffffffffffffffffffffff1916827bffffffffffffffffffffffffffffffffffffffffffffffffffffffff1916145b80610ca25750610ca18261158a565b5b9050919050565b600080610cb5836115f4565b9050600073ffffffffffffffffffffffffffffffffffffffff168173ffffffffffffffffffffffffffffffffffffffff1603610d2857826040517f7e273289000000000000000000000000000000000000000000000000000000008152600401610d1f91906121c6565b60405180910390fd5b80915050919050565b60006004600083815260200190815260200160002060009054906101000a900473ffffffffffffffffffffffffffffffffffffffff169050919050565b600033905090565b610d838383836001611631565b505050565b600080610d94846115f4565b9050600073ffffffffffffffffffffffffffffffffffffffff168373ffffffffffffffffffffffffffffffffffffffff1614610dd657610dd58184866117f6565b5b600073ffffffffffffffffffffffffffffffffffffffff168173ffffffffffffffffffffffffffffffffffffffff1614610e6757610e18600085600080611631565b6001600360008373ffffffffffffffffffffffffffffffffffffffff1673ffffffffffffffffffffffffffffffffffffffff168152602001908152602001600020600082825403925050819055505b600073ffffffffffffffffffffffffffffffffffffffff168573ffffffffffffffffffffffffffffffffffffffff1614610eea576001600360008773ffffffffffffffffffffffffffffffffffffffff1673ffffffffffffffffffffffffffffffffffffffff168152602001908152602001600020600082825401925050819055505b846002600086815260200190815260200160002060006101000a81548173ffffffffffffffffffffffffffffffffffffffff021916908373ffffffffffffffffffffffffffffffffffffffff160217905550838573ffffffffffffffffffffffffffffffffffffffff168273ffffffffffffffffffffffffffffffffffffffff167fddf252ad1be2c89b69c2b068fc378daa952ba7f163c4a11628f55a4df523b3ef60405160405180910390a4809150509392505050565b610faa610d6e565b73ffffffffffffffffffffffffffffffffffffffff16610fc86108a5565b73ffffffffffffffffffffffffffffffffffffffff161461102757610feb610d6e565b6040517f118cdaa700000000000000000000000000000000000000000000000000000000815260040161101e9190611ed6565b60405180910390fd5b565b6110438282604051806020016040528060008152506118ba565b5050565b8060066000848152602001908152602001600020908161106791906126d7565b507ff8e1a15aba9398e019f0b49df1a4fde98ee17ae345cb5f6b5e2c27f5033e8ce78260405161109791906121c6565b60405180910390a15050565b6000600760009054906101000a900473ffffffffffffffffffffffffffffffffffffffff16905081600760006101000a81548173ffffffffffffffffffffffffffffffffffffffff021916908373ffffffffffffffffffffffffffffffffffffffff1602179055508173ffffffffffffffffffffffffffffffffffffffff168173ffffffffffffffffffffffffffffffffffffffff167f8be0079c531659141344cd1fd0a4f28419497f9722a3daafe3b4186f6b6457e060405160405180910390a35050565b600073ffffffffffffffffffffffffffffffffffffffff168273ffffffffffffffffffffffffffffffffffffffff16036111da57816040517f5b08ba180000000000000000000000000000000000000000000000000000000081526004016111d19190611ed6565b60405180910390fd5b80600560008573ffffffffffffffffffffffffffffffffffffffff1673ffffffffffffffffffffffffffffffffffffffff16815260200190815260200160002060008473ffffffffffffffffffffffffffffffffffffffff1673ffffffffffffffffffffffffffffffffffffffff16815260200190815260200160002060006101000a81548160ff0219169083151502179055508173ffffffffffffffffffffffffffffffffffffffff168373ffffffffffffffffffffffffffffffffffffffff167f17307eab39ab6107e8899845ad3d59bd9653f200f220920489ca2b5937696c31836040516112cb9190611d65565b60405180910390a3505050565b60008373ffffffffffffffffffffffffffffffffffffffff163b1115611489578273ffffffffffffffffffffffffffffffffffffffff1663150b7a0261131c610d6e565b8685856040518563ffffffff1660e01b815260040161133e949392919061285e565b6020604051808303816000875af192505050801561137a57506040513d601f19601f8201168201806040525081019061137791906128bf565b60015b6113fe573d80600081146113aa576040519150601f19603f3d011682016040523d82523d6000602084013e6113af565b606091505b5060008151036113f657836040517f64a0ae920000000000000000000000000000000000000000000000000000000081526004016113ed9190611ed6565b60405180910390fd5b805181602001fd5b63150b7a0260e01b7bffffffffffffffffffffffffffffffffffffffffffffffffffffffff1916817bffffffffffffffffffffffffffffffffffffffffffffffffffffffff19161461148757836040517f64a0ae9200000000000000000000000000000000000000000000000000000000815260040161147e9190611ed6565b60405180910390fd5b505b50505050565b6060600a805461149e906123e0565b80601f01602080910402602001604051908101604052809291908181526020018280546114ca906123e0565b80156115175780601f106114ec57610100808354040283529160200191611517565b820191906000526020600020905b8154815290600101906020018083116114fa57829003601f168201915b5050505050905090565b606061152c82610ca9565b50600061153761148f565b905060008151116115575760405180602001604052806000815250611582565b80611561846118d6565b6040516020016115729291906127e5565b6040516020818303038152906040525b915050919050565b60007f01ffc9a7000000000000000000000000000000000000000000000000000000007bffffffffffffffffffffffffffffffffffffffffffffffffffffffff1916827bffffffffffffffffffffffffffffffffffffffffffffffffffffffff1916149050919050565b60006002600083815260200190815260200160002060009054906101000a900473ffffffffffffffffffffffffffffffffffffffff169050919050565b808061166a5750600073ffffffffffffffffffffffffffffffffffffffff168273ffffffffffffffffffffffffffffffffffffffff1614155b1561179e57600061167a84610ca9565b9050600073ffffffffffffffffffffffffffffffffffffffff168373ffffffffffffffffffffffffffffffffffffffff16141580156116e557508273ffffffffffffffffffffffffffffffffffffffff168173ffffffffffffffffffffffffffffffffffffffff1614155b80156116f857506116f68184610aad565b155b1561173a57826040517fa9fbf51f0000000000000000000000000000000000000000000000000000000081526004016117319190611ed6565b60405180910390fd5b811561179c57838573ffffffffffffffffffffffffffffffffffffffff168273ffffffffffffffffffffffffffffffffffffffff167f8c5be1e5ebec7d5bd14f71427d1e84f3dd0314c0f7b2291e5b200ac8c7c3b92560405160405180910390a45b505b836004600085815260200190815260200160002060006101000a81548173ffffffffffffffffffffffffffffffffffffffff021916908373ffffffffffffffffffffffffffffffffffffffff16021790555050505050565b6118018383836119a4565b6118b557600073ffffffffffffffffffffffffffffffffffffffff168373ffffffffffffffffffffffffffffffffffffffff160361187657806040517f7e27328900000000000000000000000000000000000000000000000000000000815260040161186d91906121c6565b60405180910390fd5b81816040517f177e802f0000000000000000000000000000000000000000000000000000000081526004016118ac9291906128ec565b60405180910390fd5b505050565b6118c48383611a65565b6118d160008484846112d8565b505050565b6060600060016118e584611b5e565b01905060008167ffffffffffffffff81111561190457611903611fba565b5b6040519080825280601f01601f1916602001820160405280156119365781602001600182028036833780820191505090505b509050600082602001820190505b600115611999578080600190039150507f3031323334353637383961626364656600000000000000000000000000000000600a86061a8153600a858161198d5761198c612915565b5b04945060008503611944575b819350505050919050565b60008073ffffffffffffffffffffffffffffffffffffffff168373ffffffffffffffffffffffffffffffffffffffff1614158015611a5c57508273ffffffffffffffffffffffffffffffffffffffff168473ffffffffffffffffffffffffffffffffffffffff161480611a1d5750611a1c8484610aad565b5b80611a5b57508273ffffffffffffffffffffffffffffffffffffffff16611a4383610d31565b73ffffffffffffffffffffffffffffffffffffffff16145b5b90509392505050565b600073ffffffffffffffffffffffffffffffffffffffff168273ffffffffffffffffffffffffffffffffffffffff1603611ad75760006040517f64a0ae92000000000000000000000000000000000000000000000000000000008152600401611ace9190611ed6565b60405180910390fd5b6000611ae583836000610d88565b9050600073ffffffffffffffffffffffffffffffffffffffff168173ffffffffffffffffffffffffffffffffffffffff1614611b595760006040517f73c6ac6e000000000000000000000000000000000000000000000000000000008152600401611b509190611ed6565b60405180910390fd5b505050565b600080600090507a184f03e93ff9f4daa797ed6e38ed64bf6a1f0100000000000000008310611bbc577a184f03e93ff9f4daa797ed6e38ed64bf6a1f0100000000000000008381611bb257611bb1612915565b5b0492506040810190505b6d04ee2d6d415b85acef81000000008310611bf9576d04ee2d6d415b85acef81000000008381611bef57611bee612915565b5b0492506020810190505b662386f26fc100008310611c2857662386f26fc100008381611c1e57611c1d612915565b5b0492506010810190505b6305f5e1008310611c51576305f5e1008381611c4757611c46612915565b5b0492506008810190505b6127108310611c76576127108381611c6c57611c6b612915565b5b0492506004810190505b60648310611c995760648381611c8f57611c8e612915565b5b0492506002810190505b600a8310611ca8576001810190505b80915050919050565b6000604051905090565b600080fd5b600080fd5b60007fffffffff0000000000000000000000000000000000000000000000000000000082169050919050565b611cfa81611cc5565b8114611d0557600080fd5b50565b600081359050611d1781611cf1565b92915050565b600060208284031215611d3357611d32611cbb565b5b6000611d4184828501611d08565b91505092915050565b60008115159050919050565b611d5f81611d4a565b82525050565b6000602082019050611d7a6000830184611d56565b92915050565b600081519050919050565b600082825260208201905092915050565b60005b83811015611dba578082015181840152602081019050611d9f565b60008484015250505050565b6000601f19601f8301169050919050565b6000611de282611d80565b611dec8185611d8b565b9350611dfc818560208601611d9c565b611e0581611dc6565b840191505092915050565b60006020820190508181036000830152611e2a8184611dd7565b905092915050565b6000819050919050565b611e4581611e32565b8114611e5057600080fd5b50565b600081359050611e6281611e3c565b92915050565b600060208284031215611e7e57611e7d611cbb565b5b6000611e8c84828501611e53565b91505092915050565b600073ffffffffffffffffffffffffffffffffffffffff82169050919050565b6000611ec082611e95565b9050919050565b611ed081611eb5565b82525050565b6000602082019050611eeb6000830184611ec7565b92915050565b611efa81611eb5565b8114611f0557600080fd5b50565b600081359050611f1781611ef1565b92915050565b60008060408385031215611f3457611f33611cbb565b5b6000611f4285828601611f08565b9250506020611f5385828601611e53565b9150509250929050565b600080600060608486031215611f7657611f75611cbb565b5b6000611f8486828701611f08565b9350506020611f9586828701611f08565b9250506040611fa686828701611e53565b9150509250925092565b600080fd5b600080fd5b7f4e487b7100000000000000000000000000000000000000000000000000000000600052604160045260246000fd5b611ff282611dc6565b810181811067ffffffffffffffff8211171561201157612010611fba565b5b80604052505050565b6000612024611cb1565b90506120308282611fe9565b919050565b600067ffffffffffffffff8211156120505761204f611fba565b5b61205982611dc6565b9050602081019050919050565b82818337600083830152505050565b600061208861208384612035565b61201a565b9050828152602081018484840111156120a4576120a3611fb5565b5b6120af848285612066565b509392505050565b600082601f8301126120cc576120cb611fb0565b5b81356120dc848260208601612075565b91505092915050565b600080604083850312156120fc576120fb611cbb565b5b600061210a85828601611f08565b925050602083013567ffffffffffffffff81111561212b5761212a611cc0565b5b612137858286016120b7565b9150509250929050565b60006020828403121561215757612156611cbb565b5b600082013567ffffffffffffffff81111561217557612174611cc0565b5b612181848285016120b7565b91505092915050565b6000602082840312156121a05761219f611cbb565b5b60006121ae84828501611f08565b91505092915050565b6121c081611e32565b82525050565b60006020820190506121db60008301846121b7565b92915050565b6121ea81611d4a565b81146121f557600080fd5b50565b600081359050612207816121e1565b92915050565b6000806040838503121561222457612223611cbb565b5b600061223285828601611f08565b9250506020612243858286016121f8565b9150509250929050565b600067ffffffffffffffff82111561226857612267611fba565b5b61227182611dc6565b9050602081019050919050565b600061229161228c8461224d565b61201a565b9050828152602081018484840111156122ad576122ac611fb5565b5b6122b8848285612066565b509392505050565b600082601f8301126122d5576122d4611fb0565b5b81356122e584826020860161227e565b91505092915050565b6000806000806080858703121561230857612307611cbb565b5b600061231687828801611f08565b945050602061232787828801611f08565b935050604061233887828801611e53565b925050606085013567ffffffffffffffff81111561235957612358611cc0565b5b612365878288016122c0565b91505092959194509250565b6000806040838503121561238857612387611cbb565b5b600061239685828601611f08565b92505060206123a785828601611f08565b9150509250929050565b7f4e487b7100000000000000000000000000000000000000000000000000000000600052602260045260246000fd5b600060028204905060018216806123f857607f821691505b60208210810361240b5761240a6123b1565b5b50919050565b60006060820190506124266000830186611ec7565b61243360208301856121b7565b6124406040830184611ec7565b949350505050565b7f4d6178207469636b657420737570706c79207265616368656400000000000000600082015250565b600061247e601983611d8b565b915061248982612448565b602082019050919050565b600060208201905081810360008301526124ad81612471565b9050919050565b7f4e487b7100000000000000000000000000000000000000000000000000000000600052601160045260246000fd5b60006124ee82611e32565b91507fffffffffffffffffffffffffffffffffffffffffffffffffffffffffffffffff82036125205761251f6124b4565b5b600182019050919050565b60008190508160005260206000209050919050565b60006020601f8301049050919050565b600082821b905092915050565b60006008830261258d7fffffffffffffffffffffffffffffffffffffffffffffffffffffffffffffffff82612550565b6125978683612550565b95508019841693508086168417925050509392505050565b6000819050919050565b60006125d46125cf6125ca84611e32565b6125af565b611e32565b9050919050565b6000819050919050565b6125ee836125b9565b6126026125fa826125db565b84845461255d565b825550505050565b600090565b61261761260a565b6126228184846125e5565b505050565b5b818110156126465761263b60008261260f565b600181019050612628565b5050565b601f82111561268b5761265c8161252b565b61266584612540565b81016020851015612674578190505b61268861268085612540565b830182612627565b50505b505050565b600082821c905092915050565b60006126ae60001984600802612690565b1980831691505092915050565b60006126c7838361269d565b9150826002028217905092915050565b6126e082611d80565b67ffffffffffffffff8111156126f9576126f8611fba565b5b61270382546123e0565b61270e82828561264a565b600060209050601f831160018114612741576000841561272f578287015190505b61273985826126bb565b8655506127a1565b601f19841661274f8661252b565b60005b8281101561277757848901518255600182019150602085019450602081019050612752565b868310156127945784890151612790601f89168261269d565b8355505b6001600288020188555050505b505050505050565b600081905092915050565b60006127bf82611d80565b6127c981856127a9565b93506127d9818560208601611d9c565b80840191505092915050565b60006127f182856127b4565b91506127fd82846127b4565b91508190509392505050565b600081519050919050565b600082825260208201905092915050565b600061283082612809565b61283a8185612814565b935061284a818560208601611d9c565b61285381611dc6565b840191505092915050565b60006080820190506128736000830187611ec7565b6128806020830186611ec7565b61288d60408301856121b7565b818103606083015261289f8184612825565b905095945050505050565b6000815190506128b981611cf1565b92915050565b6000602082840312156128d5576128d4611cbb565b5b60006128e3848285016128aa565b91505092915050565b60006040820190506129016000830185611ec7565b61290e60208301846121b7565b9392505050565b7f4e487b7100000000000000000000000000000000000000000000000000000000600052601260045260246000fdfea26469706673582212209dcd173c3db43fdc1fafa38debc2b949e4abc27097f8dbc3da9df95a2e078f3864736f6c63430008180033",
  "linkReferences": {},
  "deployedLinkReferences": {}
}