{
  "_format": "hh-sol-artifact-1",
  "contractName": "NFTGatedEvent",
  "sourceName": "contracts/nft-gated-event.sol",
  "abi": [
    {
      "inputs": [
        {
          "internalType": "address",
          "name": "_nftContract",
          "type": "address"
        }
      ],
      "stateMutability": "nonpayable",
      "type": "constructor"
    },
    {
      "inputs": [
        {
          "internalType": "address",
          "name": "owner",
          "type": "address"
        }
      ],
      "name": "OwnableInvalidOwner",
      "type": "error"
    },
    {
      "inputs": [
        {
          "internalType": "address",
          "name": "account",
          "type": "address"
        }
      ],
      "name": "OwnableUnauthorizedAccount",
      "type": "error"
    },
    {
      "anonymous": false,
      "inputs": [
        {
          "indexed": true,
          "internalType": "address",
          "name": "user",
          "type": "address"
        },
        {
          "indexed": false,
          "internalType": "uint256",
          "name": "eventId",
          "type": "uint256"
        },
        {
          "indexed": false,
          "internalType": "string",
          "name": "eventName",
          "type": "string"
        }
      ],
      "name": "AttendedEvent",
      "type": "event"
    },
    {
      "anonymous": false,
      "inputs": [
        {
          "indexed": true,
          "internalType": "address",
          "name": "previousOwner",
          "type": "address"
        },
        {
          "indexed": true,
          "internalType": "address",
          "name": "newOwner",
          "type": "address"
        }
      ],
      "name": "OwnershipTransferred",
      "type": "event"
    },
    {
      "inputs": [
        {
          "internalType": "uint256",
          "name": "eventId",
          "type": "uint256"
        },
        {
          "internalType": "uint256",
          "name": "tokenId",
          "type": "uint256"
        }
      ],
      "name": "attendEvent",
      "outputs": [],
      "stateMutability": "payable",
      "type": "function"
    },
    {
      "inputs": [
        {
          "internalType": "uint256",
          "name": "eventId",
          "type": "uint256"
        },
        {
          "internalType": "string",
          "name": "name",
          "type": "string"
        },
        {
          "internalType": "uint256",
          "name": "date",
          "type": "uint256"
        },
        {
          "internalType": "uint256",
          "name": "price",
          "type": "uint256"
        },
        {
          "internalType": "uint256",
          "name": "maxAttendees",
          "type": "uint256"
        }
      ],
      "name": "createEvent",
      "outputs": [],
      "stateMutability": "nonpayable",
      "type": "function"
    },
    {
      "inputs": [
        {
          "internalType": "uint256",
          "name": "eventId",
          "type": "uint256"
        }
      ],
      "name": "deactivateEvent",
      "outputs": [],
      "stateMutability": "nonpayable",
      "type": "function"
    },
    {
      "inputs": [
        {
          "internalType": "uint256",
          "name": "",
          "type": "uint256"
        },
        {
          "internalType": "address",
          "name": "",
          "type": "address"
        }
      ],
      "name": "eventAttendees",
      "outputs": [
        {
          "internalType": "bool",
          "name": "",
          "type": "bool"
        }
      ],
      "stateMutability": "view",
      "type": "function"
    },
    {
      "inputs": [
        {
          "internalType": "uint256",
          "name": "",
          "type": "uint256"
        }
      ],
      "name": "events",
      "outputs": [
        {
          "internalType": "string",
          "name": "name",
          "type": "string"
        },
        {
          "internalType": "uint256",
          "name": "date",
          "type": "uint256"
        },
        {
          "internalType": "uint256",
          "name": "price",
          "type": "uint256"
        },
        {
          "internalType": "uint256",
          "name": "maxAttendees",
          "type": "uint256"
        },
        {
          "internalType": "uint256",
          "name": "attendeesCount",
          "type": "uint256"
        },
        {
          "internalType": "bool",
          "name": "isActive",
          "type": "bool"
        }
      ],
      "stateMutability": "view",
      "type": "function"
    },
    {
      "inputs": [
        {
          "internalType": "uint256",
          "name": "eventId",
          "type": "uint256"
        }
      ],
      "name": "getEventDetails",
      "outputs": [
        {
          "internalType": "string",
          "name": "name",
          "type": "string"
        },
        {
          "internalType": "uint256",
          "name": "date",
          "type": "uint256"
        },
        {
          "internalType": "uint256",
          "name": "price",
          "type": "uint256"
        },
        {
          "internalType": "uint256",
          "name": "maxAttendees",
          "type": "uint256"
        },
        {
          "internalType": "uint256",
          "name": "attendeesCount",
          "type": "uint256"
        },
        {
          "internalType": "bool",
          "name": "isActive",
          "type": "bool"
        }
      ],
      "stateMutability": "view",
      "type": "function"
    },
    {
      "inputs": [],
      "name": "nftContract",
      "outputs": [
        {
          "internalType": "contract IERC721",
          "name": "",
          "type": "address"
        }
      ],
      "stateMutability": "view",
      "type": "function"
    },
    {
      "inputs": [],
      "name": "owner",
      "outputs": [
        {
          "internalType": "address",
          "name": "",
          "type": "address"
        }
      ],
      "stateMutability": "view",
      "type": "function"
    },
    {
      "inputs": [],
      "name": "renounceOwnership",
      "outputs": [],
      "stateMutability": "nonpayable",
      "type": "function"
    },
    {
      "inputs": [
        {
          "internalType": "address",
          "name": "newOwner",
          "type": "address"
        }
      ],
      "name": "transferOwnership",
      "outputs": [],
      "stateMutability": "nonpayable",
      "type": "function"
    },
    {
      "inputs": [],
      "name": "withdrawFunds",
      "outputs": [],
      "stateMutability": "nonpayable",
      "type": "function"
    }
  ],
  "bytecode": "0x60806040523480156200001157600080fd5b5060405162001c3d38038062001c3d833981810160405281019062000037919062000235565b33600073ffffffffffffffffffffffffffffffffffffffff168173ffffffffffffffffffffffffffffffffffffffff1603620000ad5760006040517f1e4fbdf7000000000000000000000000000000000000000000000000000000008152600401620000a4919062000278565b60405180910390fd5b620000be816200010760201b60201c565b5080600160006101000a81548173ffffffffffffffffffffffffffffffffffffffff021916908373ffffffffffffffffffffffffffffffffffffffff1602179055505062000295565b60008060009054906101000a900473ffffffffffffffffffffffffffffffffffffffff169050816000806101000a81548173ffffffffffffffffffffffffffffffffffffffff021916908373ffffffffffffffffffffffffffffffffffffffff1602179055508173ffffffffffffffffffffffffffffffffffffffff168173ffffffffffffffffffffffffffffffffffffffff167f8be0079c531659141344cd1fd0a4f28419497f9722a3daafe3b4186f6b6457e060405160405180910390a35050565b600080fd5b600073ffffffffffffffffffffffffffffffffffffffff82169050919050565b6000620001fd82620001d0565b9050919050565b6200020f81620001f0565b81146200021b57600080fd5b50565b6000815190506200022f8162000204565b92915050565b6000602082840312156200024e576200024d620001cb565b5b60006200025e848285016200021e565b91505092915050565b6200027281620001f0565b82525050565b60006020820190506200028f600083018462000267565b92915050565b61199880620002a56000396000f3fe60806040526004361061009c5760003560e01c80638da5cb5b116100645780638da5cb5b1461016a578063957a632e146101955780639ec4b59a146101be578063d56d229d146101e7578063ec38d5a014610212578063f2fde38b146102545761009c565b80630b791430146100a157806324600fc3146100e357806327c7127e146100fa5780634ca173b614610137578063715018a614610153575b600080fd5b3480156100ad57600080fd5b506100c860048036038101906100c39190610cf5565b61027d565b6040516100da96959493929190610ddc565b60405180910390f35b3480156100ef57600080fd5b506100f861034e565b005b34801561010657600080fd5b50610121600480360381019061011c9190610ea2565b6103a6565b60405161012e9190610ee2565b60405180910390f35b610151600480360381019061014c9190610efd565b6103d5565b005b34801561015f57600080fd5b50610168610768565b005b34801561017657600080fd5b5061017f61077c565b60405161018c9190610f4c565b60405180910390f35b3480156101a157600080fd5b506101bc60048036038101906101b79190610cf5565b6107a5565b005b3480156101ca57600080fd5b506101e560048036038101906101e0919061109c565b610842565b005b3480156101f357600080fd5b506101fc61095a565b6040516102099190611192565b60405180910390f35b34801561021e57600080fd5b5061023960048036038101906102349190610cf5565b610980565b60405161024b96959493929190610ddc565b60405180910390f35b34801561026057600080fd5b5061027b600480360381019061027691906111ad565b610ad2565b005b60026020528060005260406000206000915090508060000180546102a090611209565b80601f01602080910402602001604051908101604052809291908181526020018280546102cc90611209565b80156103195780601f106102ee57610100808354040283529160200191610319565b820191906000526020600020905b8154815290600101906020018083116102fc57829003601f168201915b5050505050908060010154908060020154908060030154908060040154908060050160009054906101000a900460ff16905086565b610356610b58565b61035e61077c565b73ffffffffffffffffffffffffffffffffffffffff166108fc479081150290604051600060405180830381858888f193505050501580156103a3573d6000803e3d6000fd5b50565b60036020528160005260406000206020528060005260406000206000915091509054906101000a900460ff1681565b816002600082815260200190815260200160002060050160009054906101000a900460ff16610439576040517f08c379a0000000000000000000000000000000000000000000000000000000008152600401610430906112ac565b60405180910390fd5b813373ffffffffffffffffffffffffffffffffffffffff16600160009054906101000a900473ffffffffffffffffffffffffffffffffffffffff1673ffffffffffffffffffffffffffffffffffffffff16636352211e836040518263ffffffff1660e01b81526004016104ac91906112cc565b602060405180830381865afa1580156104c9573d6000803e3d6000fd5b505050506040513d601f19601f820116820180604052508101906104ed91906112fc565b73ffffffffffffffffffffffffffffffffffffffff1614610543576040517f08c379a000000000000000000000000000000000000000000000000000000000815260040161053a90611375565b60405180910390fd5b600060026000868152602001908152602001600020905080600201543410156105a1576040517f08c379a0000000000000000000000000000000000000000000000000000000008152600401610598906113e1565b60405180910390fd5b80600301548160040154106105eb576040517f08c379a00000000000000000000000000000000000000000000000000000000081526004016105e29061144d565b60405180910390fd5b6003600086815260200190815260200160002060003373ffffffffffffffffffffffffffffffffffffffff1673ffffffffffffffffffffffffffffffffffffffff16815260200190815260200160002060009054906101000a900460ff1615610689576040517f08c379a0000000000000000000000000000000000000000000000000000000008152600401610680906114df565b60405180910390fd5b600181600401600082825461069e919061152e565b9250508190555060016003600087815260200190815260200160002060003373ffffffffffffffffffffffffffffffffffffffff1673ffffffffffffffffffffffffffffffffffffffff16815260200190815260200160002060006101000a81548160ff0219169083151502179055503373ffffffffffffffffffffffffffffffffffffffff167f6d44b703ea75b72c2bdf563d216931f8b1e918275ece7110fe73a7461a632cc786836000016040516107599291906115fb565b60405180910390a25050505050565b610770610b58565b61077a6000610bdf565b565b60008060009054906101000a900473ffffffffffffffffffffffffffffffffffffffff16905090565b6107ad610b58565b6002600082815260200190815260200160002060050160009054906101000a900460ff16610810576040517f08c379a000000000000000000000000000000000000000000000000000000000815260040161080790611677565b60405180910390fd5b60006002600083815260200190815260200160002060050160006101000a81548160ff02191690831515021790555050565b61084a610b58565b6002600086815260200190815260200160002060050160009054906101000a900460ff16156108ae576040517f08c379a00000000000000000000000000000000000000000000000000000000081526004016108a5906116e3565b60405180910390fd5b6040518060c0016040528085815260200184815260200183815260200182815260200160008152602001600115158152506002600087815260200190815260200160002060008201518160000190816109079190611890565b506020820151816001015560408201518160020155606082015181600301556080820151816004015560a08201518160050160006101000a81548160ff0219169083151502179055509050505050505050565b600160009054906101000a900473ffffffffffffffffffffffffffffffffffffffff1681565b60606000806000806000866002600082815260200190815260200160002060050160009054906101000a900460ff166109ee576040517f08c379a00000000000000000000000000000000000000000000000000000000081526004016109e5906112ac565b60405180910390fd5b6000600260008a815260200190815260200160002090508060000181600101548260020154836003015484600401548560050160009054906101000a900460ff16858054610a3b90611209565b80601f0160208091040260200160405190810160405280929190818152602001828054610a6790611209565b8015610ab45780601f10610a8957610100808354040283529160200191610ab4565b820191906000526020600020905b815481529060010190602001808311610a9757829003601f168201915b50505050509550975097509750975097509750505091939550919395565b610ada610b58565b600073ffffffffffffffffffffffffffffffffffffffff168173ffffffffffffffffffffffffffffffffffffffff1603610b4c5760006040517f1e4fbdf7000000000000000000000000000000000000000000000000000000008152600401610b439190610f4c565b60405180910390fd5b610b5581610bdf565b50565b610b60610ca3565b73ffffffffffffffffffffffffffffffffffffffff16610b7e61077c565b73ffffffffffffffffffffffffffffffffffffffff1614610bdd57610ba1610ca3565b6040517f118cdaa7000000000000000000000000000000000000000000000000000000008152600401610bd49190610f4c565b60405180910390fd5b565b60008060009054906101000a900473ffffffffffffffffffffffffffffffffffffffff169050816000806101000a81548173ffffffffffffffffffffffffffffffffffffffff021916908373ffffffffffffffffffffffffffffffffffffffff1602179055508173ffffffffffffffffffffffffffffffffffffffff168173ffffffffffffffffffffffffffffffffffffffff167f8be0079c531659141344cd1fd0a4f28419497f9722a3daafe3b4186f6b6457e060405160405180910390a35050565b600033905090565b6000604051905090565b600080fd5b600080fd5b6000819050919050565b610cd281610cbf565b8114610cdd57600080fd5b50565b600081359050610cef81610cc9565b92915050565b600060208284031215610d0b57610d0a610cb5565b5b6000610d1984828501610ce0565b91505092915050565b600081519050919050565b600082825260208201905092915050565b60005b83811015610d5c578082015181840152602081019050610d41565b60008484015250505050565b6000601f19601f8301169050919050565b6000610d8482610d22565b610d8e8185610d2d565b9350610d9e818560208601610d3e565b610da781610d68565b840191505092915050565b610dbb81610cbf565b82525050565b60008115159050919050565b610dd681610dc1565b82525050565b600060c0820190508181036000830152610df68189610d79565b9050610e056020830188610db2565b610e126040830187610db2565b610e1f6060830186610db2565b610e2c6080830185610db2565b610e3960a0830184610dcd565b979650505050505050565b600073ffffffffffffffffffffffffffffffffffffffff82169050919050565b6000610e6f82610e44565b9050919050565b610e7f81610e64565b8114610e8a57600080fd5b50565b600081359050610e9c81610e76565b92915050565b60008060408385031215610eb957610eb8610cb5565b5b6000610ec785828601610ce0565b9250506020610ed885828601610e8d565b9150509250929050565b6000602082019050610ef76000830184610dcd565b92915050565b60008060408385031215610f1457610f13610cb5565b5b6000610f2285828601610ce0565b9250506020610f3385828601610ce0565b9150509250929050565b610f4681610e64565b82525050565b6000602082019050610f616000830184610f3d565b92915050565b600080fd5b600080fd5b7f4e487b7100000000000000000000000000000000000000000000000000000000600052604160045260246000fd5b610fa982610d68565b810181811067ffffffffffffffff82111715610fc857610fc7610f71565b5b80604052505050565b6000610fdb610cab565b9050610fe78282610fa0565b919050565b600067ffffffffffffffff82111561100757611006610f71565b5b61101082610d68565b9050602081019050919050565b82818337600083830152505050565b600061103f61103a84610fec565b610fd1565b90508281526020810184848401111561105b5761105a610f6c565b5b61106684828561101d565b509392505050565b600082601f83011261108357611082610f67565b5b813561109384826020860161102c565b91505092915050565b600080600080600060a086880312156110b8576110b7610cb5565b5b60006110c688828901610ce0565b955050602086013567ffffffffffffffff8111156110e7576110e6610cba565b5b6110f38882890161106e565b945050604061110488828901610ce0565b935050606061111588828901610ce0565b925050608061112688828901610ce0565b9150509295509295909350565b6000819050919050565b600061115861115361114e84610e44565b611133565b610e44565b9050919050565b600061116a8261113d565b9050919050565b600061117c8261115f565b9050919050565b61118c81611171565b82525050565b60006020820190506111a76000830184611183565b92915050565b6000602082840312156111c3576111c2610cb5565b5b60006111d184828501610e8d565b91505092915050565b7f4e487b7100000000000000000000000000000000000000000000000000000000600052602260045260246000fd5b6000600282049050600182168061122157607f821691505b602082108103611234576112336111da565b5b50919050565b7f4576656e7420646f6573206e6f74206578697374206f72206973206e6f74206160008201527f6374697665000000000000000000000000000000000000000000000000000000602082015250565b6000611296602583610d2d565b91506112a18261123a565b604082019050919050565b600060208201905081810360008301526112c581611289565b9050919050565b60006020820190506112e16000830184610db2565b92915050565b6000815190506112f681610e76565b92915050565b60006020828403121561131257611311610cb5565b5b6000611320848285016112e7565b91505092915050565b7f596f7520646f206e6f74206f776e20746865207265717569726564204e465400600082015250565b600061135f601f83610d2d565b915061136a82611329565b602082019050919050565b6000602082019050818103600083015261138e81611352565b9050919050565b7f496e73756666696369656e74207061796d656e74000000000000000000000000600082015250565b60006113cb601483610d2d565b91506113d682611395565b602082019050919050565b600060208201905081810360008301526113fa816113be565b9050919050565b7f4576656e742069732066756c6c00000000000000000000000000000000000000600082015250565b6000611437600d83610d2d565b915061144282611401565b602082019050919050565b600060208201905081810360008301526114668161142a565b9050919050565b7f596f752061726520616c726561647920617474656e64696e672074686973206560008201527f76656e7400000000000000000000000000000000000000000000000000000000602082015250565b60006114c9602483610d2d565b91506114d48261146d565b604082019050919050565b600060208201905081810360008301526114f8816114bc565b9050919050565b7f4e487b7100000000000000000000000000000000000000000000000000000000600052601160045260246000fd5b600061153982610cbf565b915061154483610cbf565b925082820190508082111561155c5761155b6114ff565b5b92915050565b60008190508160005260206000209050919050565b6000815461158481611209565b61158e8186610d2d565b945060018216600081146115a957600181146115bf576115f2565b60ff1983168652811515602002860193506115f2565b6115c885611562565b60005b838110156115ea578154818901526001820191506020810190506115cb565b808801955050505b50505092915050565b60006040820190506116106000830185610db2565b81810360208301526116228184611577565b90509392505050565b7f4576656e7420697320616c726561647920696e61637469766500000000000000600082015250565b6000611661601983610d2d565b915061166c8261162b565b602082019050919050565b6000602082019050818103600083015261169081611654565b9050919050565b7f4576656e7420616c726561647920657869737473000000000000000000000000600082015250565b60006116cd601483610d2d565b91506116d882611697565b602082019050919050565b600060208201905081810360008301526116fc816116c0565b9050919050565b60006020601f8301049050919050565b600082821b905092915050565b6000600883026117507fffffffffffffffffffffffffffffffffffffffffffffffffffffffffffffffff82611713565b61175a8683611713565b95508019841693508086168417925050509392505050565b600061178d61178861178384610cbf565b611133565b610cbf565b9050919050565b6000819050919050565b6117a783611772565b6117bb6117b382611794565b848454611720565b825550505050565b600090565b6117d06117c3565b6117db81848461179e565b505050565b5b818110156117ff576117f46000826117c8565b6001810190506117e1565b5050565b601f8211156118445761181581611562565b61181e84611703565b8101602085101561182d578190505b61184161183985611703565b8301826117e0565b50505b505050565b600082821c905092915050565b600061186760001984600802611849565b1980831691505092915050565b60006118808383611856565b9150826002028217905092915050565b61189982610d22565b67ffffffffffffffff8111156118b2576118b1610f71565b5b6118bc8254611209565b6118c7828285611803565b600060209050601f8311600181146118fa57600084156118e8578287015190505b6118f28582611874565b86555061195a565b601f19841661190886611562565b60005b828110156119305784890151825560018201915060208501945060208101905061190b565b8683101561194d5784890151611949601f891682611856565b8355505b6001600288020188555050505b50505050505056fea26469706673582212208dbfa8149592ff41f501871b4517701003396e8754b69dec13eaf37dbcfcda1164736f6c63430008180033",
  "linkReferences": {},
  "deployedLinkReferences": {}
}